{
  "contractName": "CoreLayer",
  "abi": [
    {
      "constant": true,
      "inputs": [],
      "name": "name",
      "outputs": [
        {
          "name": "",
          "type": "string"
        }
      ],
      "payable": false,
      "stateMutability": "view",
      "type": "function"
    },
    {
      "constant": false,
      "inputs": [
        {
          "name": "toAddress",
          "type": "address"
        },
        {
          "name": "tokenId",
          "type": "uint256"
        }
      ],
      "name": "approve",
      "outputs": [],
      "payable": false,
      "stateMutability": "nonpayable",
      "type": "function"
    },
    {
      "constant": true,
      "inputs": [],
      "name": "totalSupply",
      "outputs": [
        {
          "name": "",
          "type": "uint256"
        }
      ],
      "payable": false,
      "stateMutability": "view",
      "type": "function"
    },
    {
      "constant": true,
      "inputs": [
        {
          "name": "",
          "type": "uint256"
        }
      ],
      "name": "tokenToWinnerMap",
      "outputs": [
        {
          "name": "",
          "type": "bool"
        }
      ],
      "payable": false,
      "stateMutability": "view",
      "type": "function"
    },
    {
      "constant": false,
      "inputs": [
        {
          "name": "fromAddress",
          "type": "address"
        },
        {
          "name": "toAddress",
          "type": "address"
        },
        {
          "name": "tokenId",
          "type": "uint256"
        }
      ],
      "name": "transferFrom",
      "outputs": [],
      "payable": false,
      "stateMutability": "nonpayable",
      "type": "function"
    },
    {
      "constant": true,
      "inputs": [
        {
          "name": "",
          "type": "uint256"
        }
      ],
      "name": "stage1Winners",
      "outputs": [
        {
          "name": "WinningTeam",
          "type": "uint256"
        },
        {
          "name": "RunnerUp",
          "type": "uint256"
        }
      ],
      "payable": false,
      "stateMutability": "view",
      "type": "function"
    },
    {
      "constant": true,
      "inputs": [
        {
          "name": "",
          "type": "uint256"
        }
      ],
      "name": "ownerOfTokenMap",
      "outputs": [
        {
          "name": "",
          "type": "address"
        }
      ],
      "payable": false,
      "stateMutability": "view",
      "type": "function"
    },
    {
      "constant": true,
      "inputs": [
        {
          "name": "",
          "type": "uint256"
        }
      ],
      "name": "tokens",
      "outputs": [
        {
          "name": "WinningTeam",
          "type": "uint256"
        },
        {
          "name": "RunnerUp",
          "type": "uint256"
        },
        {
          "name": "timeStamp",
          "type": "uint64"
        },
        {
          "name": "Stage",
          "type": "uint8"
        }
      ],
      "payable": false,
      "stateMutability": "view",
      "type": "function"
    },
    {
      "constant": true,
      "inputs": [],
      "name": "stage1Pool",
      "outputs": [
        {
          "name": "",
          "type": "uint256"
        }
      ],
      "payable": false,
      "stateMutability": "view",
      "type": "function"
    },
    {
      "constant": true,
      "inputs": [
        {
          "name": "tokenId",
          "type": "uint256"
        }
      ],
      "name": "ownerOf",
      "outputs": [
        {
          "name": "ownerAddress",
          "type": "address"
        }
      ],
      "payable": false,
      "stateMutability": "view",
      "type": "function"
    },
    {
      "constant": true,
      "inputs": [],
      "name": "stage1Payout",
      "outputs": [
        {
          "name": "",
          "type": "uint256"
        }
      ],
      "payable": false,
      "stateMutability": "view",
      "type": "function"
    },
    {
      "constant": false,
      "inputs": [
        {
          "name": "_newAdmin",
          "type": "address"
        }
      ],
      "name": "setAdmin",
      "outputs": [],
      "payable": false,
      "stateMutability": "nonpayable",
      "type": "function"
    },
    {
      "constant": true,
      "inputs": [
        {
          "name": "userAddress",
          "type": "address"
        }
      ],
      "name": "balanceOf",
      "outputs": [
        {
          "name": "count",
          "type": "uint256"
        }
      ],
      "payable": false,
      "stateMutability": "view",
      "type": "function"
    },
    {
      "constant": true,
      "inputs": [
        {
          "name": "ownerAddress",
          "type": "address"
        }
      ],
      "name": "tokensOfOwner",
      "outputs": [
        {
          "name": "tokenIds",
          "type": "uint256[]"
        }
      ],
      "payable": false,
      "stateMutability": "view",
      "type": "function"
    },
    {
      "constant": true,
      "inputs": [],
      "name": "symbol",
      "outputs": [
        {
          "name": "",
          "type": "string"
        }
      ],
      "payable": false,
      "stateMutability": "view",
      "type": "function"
    },
    {
      "constant": true,
      "inputs": [
        {
          "name": "",
          "type": "address"
        },
        {
          "name": "",
          "type": "uint256"
        }
      ],
      "name": "tokensOfOwnerMap",
      "outputs": [
        {
          "name": "",
          "type": "uint256"
        }
      ],
      "payable": false,
      "stateMutability": "view",
      "type": "function"
    },
    {
      "constant": false,
      "inputs": [
        {
          "name": "toAddress",
          "type": "address"
        },
        {
          "name": "tokenId",
          "type": "uint256"
        }
      ],
      "name": "transfer",
      "outputs": [],
      "payable": false,
      "stateMutability": "nonpayable",
      "type": "function"
    },
    {
      "constant": true,
      "inputs": [],
      "name": "stage1Ended",
      "outputs": [
        {
          "name": "",
          "type": "bool"
        }
      ],
      "payable": false,
      "stateMutability": "view",
      "type": "function"
    },
    {
      "constant": true,
      "inputs": [
        {
          "name": "",
          "type": "uint256"
        }
      ],
      "name": "tokensApprovedMap",
      "outputs": [
        {
          "name": "",
          "type": "address"
        }
      ],
      "payable": false,
      "stateMutability": "view",
      "type": "function"
    },
    {
      "constant": true,
      "inputs": [
        {
          "name": "",
          "type": "address"
        }
      ],
      "name": "recievedPrizeMoneyMap",
      "outputs": [
        {
          "name": "",
          "type": "bool"
        }
      ],
      "payable": false,
      "stateMutability": "view",
      "type": "function"
    },
    {
      "constant": true,
      "inputs": [],
      "name": "adminAddress",
      "outputs": [
        {
          "name": "",
          "type": "address"
        }
      ],
      "payable": false,
      "stateMutability": "view",
      "type": "function"
    },
    {
      "inputs": [],
      "payable": false,
      "stateMutability": "nonpayable",
      "type": "constructor"
    },
    {
      "payable": true,
      "stateMutability": "payable",
      "type": "fallback"
    },
    {
      "anonymous": false,
      "inputs": [
        {
          "indexed": false,
          "name": "payout",
          "type": "uint256"
        }
      ],
      "name": "LogPayout",
      "type": "event"
    },
    {
      "anonymous": false,
      "inputs": [
        {
          "indexed": false,
          "name": "winners",
          "type": "uint256"
        },
        {
          "indexed": false,
          "name": "tokenList",
          "type": "uint256[]"
        },
        {
          "indexed": false,
          "name": "prize",
          "type": "uint256"
        },
        {
          "indexed": false,
          "name": "stage1Pool",
          "type": "uint256"
        }
      ],
      "name": "LogWinners",
      "type": "event"
    },
    {
      "anonymous": false,
      "inputs": [
        {
          "indexed": false,
          "name": "from",
          "type": "address"
        },
        {
          "indexed": false,
          "name": "to",
          "type": "address"
        },
        {
          "indexed": false,
          "name": "tokenId",
          "type": "uint256"
        }
      ],
      "name": "LogTransfer",
      "type": "event"
    },
    {
      "anonymous": false,
      "inputs": [
        {
          "indexed": false,
          "name": "owner",
          "type": "address"
        },
        {
          "indexed": false,
          "name": "approved",
          "type": "address"
        },
        {
          "indexed": false,
          "name": "tokenId",
          "type": "uint256"
        }
      ],
      "name": "LogApproval",
      "type": "event"
    },
    {
      "anonymous": false,
      "inputs": [
        {
          "indexed": false,
          "name": "creatorAddress",
          "type": "address"
        },
        {
          "indexed": false,
          "name": "tokenId",
          "type": "uint256"
        },
        {
          "indexed": false,
          "name": "stage",
          "type": "uint8"
        },
        {
          "indexed": false,
          "name": "Winner",
          "type": "uint256"
        },
        {
          "indexed": false,
          "name": "Runnerup",
          "type": "uint256"
        },
        {
          "indexed": false,
          "name": "timeStamp",
          "type": "uint64"
        }
      ],
      "name": "LogTokenBuilt",
      "type": "event"
    },
    {
      "anonymous": false,
      "inputs": [
        {
          "indexed": false,
          "name": "money",
          "type": "uint256"
        },
        {
          "indexed": false,
          "name": "stage",
          "type": "uint256"
        }
      ],
      "name": "LogPoolSize",
      "type": "event"
    },
    {
      "constant": false,
      "inputs": [
        {
          "name": "Stage",
          "type": "uint8"
        },
        {
          "name": "WinningTeam",
          "type": "uint256"
        },
        {
          "name": "RunnerUp",
          "type": "uint256"
        }
      ],
      "name": "buildToken",
      "outputs": [],
      "payable": true,
      "stateMutability": "payable",
      "type": "function"
    },
    {
      "constant": true,
      "inputs": [
        {
          "name": "tokenId",
          "type": "uint256"
        }
      ],
      "name": "getToken",
      "outputs": [
        {
          "name": "Stage",
          "type": "uint8"
        },
        {
          "name": "WinningTeam",
          "type": "uint256"
        },
        {
          "name": "RunnerUp",
          "type": "uint256"
        },
        {
          "name": "timeStamp",
          "type": "uint64"
        }
      ],
      "payable": false,
      "stateMutability": "view",
      "type": "function"
    },
    {
      "constant": false,
      "inputs": [
        {
          "name": "Stage",
          "type": "uint256"
        },
        {
          "name": "winner",
          "type": "uint256"
        },
        {
          "name": "runner",
          "type": "uint256"
        }
      ],
      "name": "StageResults",
      "outputs": [],
      "payable": false,
      "stateMutability": "nonpayable",
      "type": "function"
    },
    {
      "constant": false,
      "inputs": [
        {
          "name": "Stage",
          "type": "uint256"
        }
      ],
      "name": "_withdrawPrize",
      "outputs": [],
      "payable": true,
      "stateMutability": "payable",
      "type": "function"
    },
    {
      "constant": false,
      "inputs": [],
      "name": "finishedGameWithdraw",
      "outputs": [],
      "payable": false,
      "stateMutability": "nonpayable",
      "type": "function"
    }
  ],
  "bytecode": "0x608060405273dd8a98ace58c038497ba8196a0c682613f7b41616000806101000a81548173ffffffffffffffffffffffffffffffffffffffff021916908373ffffffffffffffffffffffffffffffffffffffff1602179055506000600360006101000a81548160ff02191690831515021790555034801561007f57600080fd5b50336000806101000a81548173ffffffffffffffffffffffffffffffffffffffff021916908373ffffffffffffffffffffffffffffffffffffffff160217905550612ccf806100cf6000396000f300608060405260043610610154576000357c0100000000000000000000000000000000000000000000000000000000900463ffffffff16806306fdde031461021a578063095ea7b3146102aa57806318160ddd146102f75780631b85a6751461032257806323b872dd14610367578063329aa224146103d457806337440e9e1461041c5780633a52a699146104895780634f64b2be146104a95780634fd73398146105195780636352211e146105445780636df52e5a146105b1578063704b6c02146105dc57806370a082311461061f5780638462151c1461067657806395d89b411461070e578063a3816e901461079e578063a5c3b504146107ff578063a9059cbb14610840578063b3f500291461088d578063b4277d08146108a4578063e4b50cb8146108d3578063ee76c4e014610943578063ef8fd0041461097a578063faaf7179146109e7578063fc6f946814610a42575b6000809054906101000a900473ffffffffffffffffffffffffffffffffffffffff1673ffffffffffffffffffffffffffffffffffffffff163373ffffffffffffffffffffffffffffffffffffffff16141515610218576040517f08c379a00000000000000000000000000000000000000000000000000000000081526004018080602001828103825260018152602001807f200000000000000000000000000000000000000000000000000000000000000081525060200191505060405180910390fd5b005b34801561022657600080fd5b5061022f610a99565b6040518080602001828103825283818151815260200191508051906020019080838360005b8381101561026f578082015181840152602081019050610254565b50505050905090810190601f16801561029c5780820380516001836020036101000a031916815260200191505b509250505060405180910390f35b3480156102b657600080fd5b506102f5600480360381019080803573ffffffffffffffffffffffffffffffffffffffff16906020019092919080359060200190929190505050610ad6565b005b34801561030357600080fd5b5061030c610ca6565b6040518082815260200191505060405180910390f35b34801561032e57600080fd5b5061034d60048036038101908080359060200190929190505050610cb3565b604051808215151515815260200191505060405180910390f35b34801561037357600080fd5b506103d2600480360381019080803573ffffffffffffffffffffffffffffffffffffffff169060200190929190803573ffffffffffffffffffffffffffffffffffffffff16906020019092919080359060200190929190505050610cd3565b005b3480156103e057600080fd5b506103ff60048036038101908080359060200190929190505050610fc7565b604051808381526020018281526020019250505060405180910390f35b34801561042857600080fd5b5061044760048036038101908080359060200190929190505050610ffa565b604051808273ffffffffffffffffffffffffffffffffffffffff1673ffffffffffffffffffffffffffffffffffffffff16815260200191505060405180910390f35b6104a76004803603810190808035906020019092919050505061102d565b005b3480156104b557600080fd5b506104d460048036038101908080359060200190929190505050611527565b604051808581526020018481526020018367ffffffffffffffff1667ffffffffffffffff1681526020018260ff1660ff16815260200194505050505060405180910390f35b34801561052557600080fd5b5061052e611587565b6040518082815260200191505060405180910390f35b34801561055057600080fd5b5061056f6004803603810190808035906020019092919050505061158d565b604051808273ffffffffffffffffffffffffffffffffffffffff1673ffffffffffffffffffffffffffffffffffffffff16815260200191505060405180910390f35b3480156105bd57600080fd5b506105c661166f565b6040518082815260200191505060405180910390f35b3480156105e857600080fd5b5061061d600480360381019080803573ffffffffffffffffffffffffffffffffffffffff169060200190929190505050611675565b005b34801561062b57600080fd5b50610660600480360381019080803573ffffffffffffffffffffffffffffffffffffffff169060200190929190505050611783565b6040518082815260200191505060405180910390f35b34801561068257600080fd5b506106b7600480360381019080803573ffffffffffffffffffffffffffffffffffffffff1690602001909291905050506117cf565b6040518080602001828103825283818151815260200191508051906020019060200280838360005b838110156106fa5780820151818401526020810190506106df565b505050509050019250505060405180910390f35b34801561071a57600080fd5b50610723611866565b6040518080602001828103825283818151815260200191508051906020019080838360005b83811015610763578082015181840152602081019050610748565b50505050905090810190601f1680156107905780820380516001836020036101000a031916815260200191505b509250505060405180910390f35b3480156107aa57600080fd5b506107e9600480360381019080803573ffffffffffffffffffffffffffffffffffffffff169060200190929190803590602001909291905050506118a3565b6040518082815260200191505060405180910390f35b34801561080b57600080fd5b5061083e6004803603810190808035906020019092919080359060200190929190803590602001909291905050506118d3565b005b34801561084c57600080fd5b5061088b600480360381019080803573ffffffffffffffffffffffffffffffffffffffff16906020019092919080359060200190929190505050611a37565b005b34801561089957600080fd5b506108a2611cac565b005b3480156108b057600080fd5b506108b9611df7565b604051808215151515815260200191505060405180910390f35b3480156108df57600080fd5b506108fe60048036038101908080359060200190929190505050611e0a565b604051808560ff1660ff1681526020018481526020018381526020018267ffffffffffffffff1667ffffffffffffffff16815260200194505050505060405180910390f35b610978600480360381019080803560ff1690602001909291908035906020019092919080359060200190929190505050611e76565b005b34801561098657600080fd5b506109a5600480360381019080803590602001909291905050506122fb565b604051808273ffffffffffffffffffffffffffffffffffffffff1673ffffffffffffffffffffffffffffffffffffffff16815260200191505060405180910390f35b3480156109f357600080fd5b50610a28600480360381019080803573ffffffffffffffffffffffffffffffffffffffff16906020019092919050505061232e565b604051808215151515815260200191505060405180910390f35b348015610a4e57600080fd5b50610a5761234e565b604051808273ffffffffffffffffffffffffffffffffffffffff1673ffffffffffffffffffffffffffffffffffffffff16815260200191505060405180910390f35b60606040805190810160405280601481526020017f4f76657277617463684c6561677565546f6b656e000000000000000000000000815250905090565b600073ffffffffffffffffffffffffffffffffffffffff168273ffffffffffffffffffffffffffffffffffffffff1614151515610b7b576040517f08c379a00000000000000000000000000000000000000000000000000000000081526004018080602001828103825260018152602001807f200000000000000000000000000000000000000000000000000000000000000081525060200191505060405180910390fd5b610b853382612373565b1515610bf9576040517f08c379a00000000000000000000000000000000000000000000000000000000081526004018080602001828103825260018152602001807f200000000000000000000000000000000000000000000000000000000000000081525060200191505060405180910390fd5b610c0381836123df565b7fc5c187f53b6bf5e61e032320e996f271e6dc6b212ee64ec28ba8e6b9e3f97a4e338383604051808473ffffffffffffffffffffffffffffffffffffffff1673ffffffffffffffffffffffffffffffffffffffff1681526020018373ffffffffffffffffffffffffffffffffffffffff1673ffffffffffffffffffffffffffffffffffffffff168152602001828152602001935050505060405180910390a15050565b6000600180549050905090565b60086020528060005260406000206000915054906101000a900460ff1681565b600073ffffffffffffffffffffffffffffffffffffffff168273ffffffffffffffffffffffffffffffffffffffff1614151515610d78576040517f08c379a00000000000000000000000000000000000000000000000000000000081526004018080602001828103825260018152602001807f200000000000000000000000000000000000000000000000000000000000000081525060200191505060405180910390fd5b3073ffffffffffffffffffffffffffffffffffffffff168273ffffffffffffffffffffffffffffffffffffffff1614151515610e1c576040517f08c379a00000000000000000000000000000000000000000000000000000000081526004018080602001828103825260018152602001807f200000000000000000000000000000000000000000000000000000000000000081525060200191505060405180910390fd5b610e263382612435565b1515610e9a576040517f08c379a00000000000000000000000000000000000000000000000000000000081526004018080602001828103825260018152602001807f200000000000000000000000000000000000000000000000000000000000000081525060200191505060405180910390fd5b610ea48382612373565b1515610f18576040517f08c379a00000000000000000000000000000000000000000000000000000000081526004018080602001828103825260018152602001807f200000000000000000000000000000000000000000000000000000000000000081525060200191505060405180910390fd5b610f238383836124a1565b7f0a85107a334eae0d22d21cdf13af0f8e8125039ec60baaa843d2c4c5b0680174838383604051808473ffffffffffffffffffffffffffffffffffffffff1673ffffffffffffffffffffffffffffffffffffffff1681526020018373ffffffffffffffffffffffffffffffffffffffff1673ffffffffffffffffffffffffffffffffffffffff168152602001828152602001935050505060405180910390a1505050565b600281815481101515610fd657fe5b90600052602060002090600202016000915090508060000154908060010154905082565b60066020528060005260406000206000915054906101000a900473ffffffffffffffffffffffffffffffffffffffff1681565b6000606060008060011515600960003373ffffffffffffffffffffffffffffffffffffffff1673ffffffffffffffffffffffffffffffffffffffff16815260200190815260200160002060009054906101000a900460ff16151514151515611123576040517f08c379a00000000000000000000000000000000000000000000000000000000081526004018080602001828103825260268152602001807f596f7520616c726561647920776974686472657720796f7572207072697a652081526020017f6d6f6e657920000000000000000000000000000000000000000000000000000081525060400191505060405180910390fd5b60001515600360009054906101000a900460ff161515141515156111af576040517f08c379a00000000000000000000000000000000000000000000000000000000081526004018080602001828103825260178152602001807f537461676520686173206e6f7420656e6465642079657400000000000000000081525060200191505060405180910390fd5b60009350600560003373ffffffffffffffffffffffffffffffffffffffff1673ffffffffffffffffffffffffffffffffffffffff16815260200190815260200160002080548060200260200160405190810160405280929190818152602001828054801561123c57602002820191906000526020600020905b815481526020019060010190808311611228575b5050505050925060009150600185141561152057600090505b82518110156112bf5760086000848381518110151561127057fe5b90602001906020020151815260200190815260200160002060009054906101000a900460ff16156112b2576112af60018361274a90919063ffffffff16565b91505b8080600101915050611255565b6112d4600b548361276890919063ffffffff16565b93506000841115611434573373ffffffffffffffffffffffffffffffffffffffff166108fc859081150290604051600060405180830381858888f19350505050158015611325573d6000803e3d6000fd5b5061133b84600a546127a390919063ffffffff16565b600a819055507f1f10c61ce0f0d25784b354efa27d5ae6a718c1c26124161aec77ee7ebb02eca0828486600a546040518085815260200180602001848152602001838152602001828103825285818151815260200191508051906020019060200280838360005b838110156113bd5780820151818401526020810190506113a2565b505050509050019550505050505060405180910390a1600091506001600960003373ffffffffffffffffffffffffffffffffffffffff1673ffffffffffffffffffffffffffffffffffffffff16815260200190815260200160002060006101000a81548160ff02191690831515021790555061151f565b7f1f10c61ce0f0d25784b354efa27d5ae6a718c1c26124161aec77ee7ebb02eca0828486600a546040518085815260200180602001848152602001838152602001828103825285818151815260200191508051906020019060200280838360005b838110156114b0578082015181840152602081019050611495565b505050509050019550505050505060405180910390a16001600960003373ffffffffffffffffffffffffffffffffffffffff1673ffffffffffffffffffffffffffffffffffffffff16815260200190815260200160002060006101000a81548160ff0219169083151502179055505b5b5050505050565b60018181548110151561153657fe5b90600052602060002090600302016000915090508060000154908060010154908060020160009054906101000a900467ffffffffffffffff16908060020160089054906101000a900460ff16905084565b600a5481565b60006006600083815260200190815260200160002060009054906101000a900473ffffffffffffffffffffffffffffffffffffffff169050600073ffffffffffffffffffffffffffffffffffffffff168173ffffffffffffffffffffffffffffffffffffffff161415151561166a576040517f08c379a00000000000000000000000000000000000000000000000000000000081526004018080602001828103825260018152602001807f200000000000000000000000000000000000000000000000000000000000000081525060200191505060405180910390fd5b919050565b600b5481565b600073ffffffffffffffffffffffffffffffffffffffff168173ffffffffffffffffffffffffffffffffffffffff1614151515611740576040517f08c379a00000000000000000000000000000000000000000000000000000000081526004018080602001828103825260228152602001807f4e65772061646d696e2063616e6e6f7420657175616c7320616464726573732081526020017f302e00000000000000000000000000000000000000000000000000000000000081525060400191505060405180910390fd5b806000806101000a81548173ffffffffffffffffffffffffffffffffffffffff021916908373ffffffffffffffffffffffffffffffffffffffff16021790555050565b6000600560008373ffffffffffffffffffffffffffffffffffffffff1673ffffffffffffffffffffffffffffffffffffffff168152602001908152602001600020805490509050919050565b6060600560008373ffffffffffffffffffffffffffffffffffffffff1673ffffffffffffffffffffffffffffffffffffffff16815260200190815260200160002080548060200260200160405190810160405280929190818152602001828054801561185a57602002820191906000526020600020905b815481526020019060010190808311611846575b50505050509050919050565b60606040805190810160405280600481526020017f4f574c5400000000000000000000000000000000000000000000000000000000815250905090565b6005602052816000526040600020818154811015156118be57fe5b90600052602060002001600091509150505481565b6118db612c02565b6000809054906101000a900473ffffffffffffffffffffffffffffffffffffffff1673ffffffffffffffffffffffffffffffffffffffff163373ffffffffffffffffffffffffffffffffffffffff1614151561199f576040517f08c379a00000000000000000000000000000000000000000000000000000000081526004018080602001828103825260098152602001807f4e6f742061646d696e000000000000000000000000000000000000000000000081525060200191505060405180910390fd5b6001841415611a31576040805190810160405280848152602001838152509050600281908060018154018082558091505090600182039060005260206000209060020201600090919290919091506000820151816000015560208201518160010155505050611a0c6127bc565b611a15846129fe565b6001600360006101000a81548160ff0219169083151502179055505b50505050565b600073ffffffffffffffffffffffffffffffffffffffff168273ffffffffffffffffffffffffffffffffffffffff1614151515611adc576040517f08c379a00000000000000000000000000000000000000000000000000000000081526004018080602001828103825260018152602001807f200000000000000000000000000000000000000000000000000000000000000081525060200191505060405180910390fd5b3073ffffffffffffffffffffffffffffffffffffffff168273ffffffffffffffffffffffffffffffffffffffff1614151515611b80576040517f08c379a00000000000000000000000000000000000000000000000000000000081526004018080602001828103825260018152602001807f200000000000000000000000000000000000000000000000000000000000000081525060200191505060405180910390fd5b611b8a3382612373565b1515611bfe576040517f08c379a00000000000000000000000000000000000000000000000000000000081526004018080602001828103825260018152602001807f200000000000000000000000000000000000000000000000000000000000000081525060200191505060405180910390fd5b611c093383836124a1565b7f0a85107a334eae0d22d21cdf13af0f8e8125039ec60baaa843d2c4c5b0680174338383604051808473ffffffffffffffffffffffffffffffffffffffff1673ffffffffffffffffffffffffffffffffffffffff1681526020018373ffffffffffffffffffffffffffffffffffffffff1673ffffffffffffffffffffffffffffffffffffffff168152602001828152602001935050505060405180910390a15050565b60008060009054906101000a900473ffffffffffffffffffffffffffffffffffffffff1673ffffffffffffffffffffffffffffffffffffffff163373ffffffffffffffffffffffffffffffffffffffff16141515611d72576040517f08c379a00000000000000000000000000000000000000000000000000000000081526004018080602001828103825260098152602001807f4e6f742061646d696e000000000000000000000000000000000000000000000081525060200191505060405180910390fd5b3073ffffffffffffffffffffffffffffffffffffffff163190506000809054906101000a900473ffffffffffffffffffffffffffffffffffffffff1673ffffffffffffffffffffffffffffffffffffffff166108fc829081150290604051600060405180830381858888f19350505050158015611df3573d6000803e3d6000fd5b5050565b600360009054906101000a900460ff1681565b6000806000806000600186815481101515611e2157fe5b906000526020600020906003020190508060020160089054906101000a900460ff16945080600001549350806001015492508060020160009054906101000a900467ffffffffffffffff169150509193509193565b611e7e612c1c565b60008060018660ff161415611f195760001515600360009054906101000a900460ff161515141515611f18576040517f08c379a00000000000000000000000000000000000000000000000000000000081526004018080602001828103825260118152602001807f537461676520312068617320656e64656400000000000000000000000000000081525060200191505060405180910390fd5b5b6080604051908101604052808681526020018581526020014267ffffffffffffffff1681526020018760ff168152509250600073ffffffffffffffffffffffffffffffffffffffff163373ffffffffffffffffffffffffffffffffffffffff1614151515611fef576040517f08c379a00000000000000000000000000000000000000000000000000000000081526004018080602001828103825260188152602001807f4164647265737320657175616c7320616464726573732030000000000000000081525060200191505060405180910390fd5b6064600560003373ffffffffffffffffffffffffffffffffffffffff1673ffffffffffffffffffffffffffffffffffffffff168152602001908152602001600020805490501015156120a9576040517f08c379a000000000000000000000000000000000000000000000000000000000815260040180806020018281038252601c8152602001807f526561636820696e646976696475616c20746f6b656e206c696d69740000000081525060200191505060405180910390fd5b6001808490806001815401808255809150509060018203906000526020600020906003020160009091929091909150600082015181600001556020820151816001015560408201518160020160006101000a81548167ffffffffffffffff021916908367ffffffffffffffff16021790555060608201518160020160086101000a81548160ff021916908360ff160217905550505003915034905061215981600a5461274a90919063ffffffff16565b600a819055506121693383612b28565b7fe63d8a38f742976a5f0e55994efd3ac6594659c35b4cf7b3695d0ec119c5bbc2338360018581548110151561219b57fe5b906000526020600020906003020160020160089054906101000a900460ff166001868154811015156121c957fe5b9060005260206000209060030201600001546001878154811015156121ea57fe5b90600052602060002090600302016001015460018881548110151561220b57fe5b906000526020600020906003020160020160009054906101000a900467ffffffffffffffff16604051808773ffffffffffffffffffffffffffffffffffffffff1673ffffffffffffffffffffffffffffffffffffffff1681526020018681526020018560ff1660ff1681526020018481526020018381526020018267ffffffffffffffff1667ffffffffffffffff168152602001965050505050505060405180910390a17f51efece997ab38b1a86a5c5dc8db1a3a1b28701a3a11fa3ffb36ed0e50e47f8a600a5487604051808381526020018260ff1681526020019250505060405180910390a1505050505050565b60076020528060005260406000206000915054906101000a900473ffffffffffffffffffffffffffffffffffffffff1681565b60096020528060005260406000206000915054906101000a900460ff1681565b6000809054906101000a900473ffffffffffffffffffffffffffffffffffffffff1681565b60008273ffffffffffffffffffffffffffffffffffffffff166006600084815260200190815260200160002060009054906101000a900473ffffffffffffffffffffffffffffffffffffffff1673ffffffffffffffffffffffffffffffffffffffff1614905092915050565b806007600084815260200190815260200160002060006101000a81548173ffffffffffffffffffffffffffffffffffffffff021916908373ffffffffffffffffffffffffffffffffffffffff1602179055505050565b60008273ffffffffffffffffffffffffffffffffffffffff166007600084815260200190815260200160002060009054906101000a900473ffffffffffffffffffffffffffffffffffffffff1673ffffffffffffffffffffffffffffffffffffffff1614905092915050565b6000806064600560008673ffffffffffffffffffffffffffffffffffffffff1673ffffffffffffffffffffffffffffffffffffffff1681526020019081526020016000208054905010151561255e576040517f08c379a00000000000000000000000000000000000000000000000000000000081526004018080602001828103825260018152602001807f200000000000000000000000000000000000000000000000000000000000000081525060200191505060405180910390fd5b600560008573ffffffffffffffffffffffffffffffffffffffff1673ffffffffffffffffffffffffffffffffffffffff168152602001908152602001600020839080600181540180825580915050906001820390600052602060002001600090919290919091505550836006600085815260200190815260200160002060006101000a81548173ffffffffffffffffffffffffffffffffffffffff021916908373ffffffffffffffffffffffffffffffffffffffff160217905550600560008673ffffffffffffffffffffffffffffffffffffffff1673ffffffffffffffffffffffffffffffffffffffff1681526020019081526020016000209150600090505b81805490508110156126d55782828281548110151561267a57fe5b906000526020600020015414156126c8578160018380549050038154811015156126a057fe5b906000526020600020015482828154811015156126b957fe5b90600052602060002001819055505b808060010191505061265f565b8160018380549050038154811015156126ea57fe5b90600052602060002001600090558180548091906001900361270c9190612c52565b506007600084815260200190815260200160002060006101000a81549073ffffffffffffffffffffffffffffffffffffffff02191690555050505050565b600080828401905083811015151561275e57fe5b8091505092915050565b600080600084141561277d576000915061279c565b828402905082848281151561278e57fe5b0414151561279857fe5b8091505b5092915050565b60008282111515156127b157fe5b818303905092915050565b60008060009054906101000a900473ffffffffffffffffffffffffffffffffffffffff1673ffffffffffffffffffffffffffffffffffffffff163373ffffffffffffffffffffffffffffffffffffffff16141515612882576040517f08c379a00000000000000000000000000000000000000000000000000000000081526004018080602001828103825260098152602001807f4e6f742061646d696e000000000000000000000000000000000000000000000081525060200191505060405180910390fd5b600090505b6001805490508110156129fb57600180828154811015156128a457fe5b906000526020600020906003020160020160089054906101000a900460ff1660ff161480156129135750600260008154811015156128de57fe5b9060005260206000209060020201600001546001828154811015156128ff57fe5b906000526020600020906003020160000154145b801561295f57506002600081548110151561292a57fe5b90600052602060002090600202016001015460018281548110151561294b57fe5b906000526020600020906003020160010154145b156129c157600481908060018154018082558091505090600182039060005260206000200160009091929091909150555060016008600083815260200190815260200160002060006101000a81548160ff0219169083151502179055506129ee565b60006008600083815260200190815260200160002060006101000a81548160ff0219169083151502179055505b8080600101915050612887565b50565b6000809054906101000a900473ffffffffffffffffffffffffffffffffffffffff1673ffffffffffffffffffffffffffffffffffffffff163373ffffffffffffffffffffffffffffffffffffffff16141515612ac2576040517f08c379a00000000000000000000000000000000000000000000000000000000081526004018080602001828103825260098152602001807f4e6f742061646d696e000000000000000000000000000000000000000000000081525060200191505060405180910390fd5b6001811415612b2557612ae5600480549050600a54612be790919063ffffffff16565b600b819055507fa618b3c1f51d8c11458f5dc932e499ace1f605df16ed8292dd173844ffe8ac08600b546040518082815260200191505060405180910390a15b50565b600560008373ffffffffffffffffffffffffffffffffffffffff1673ffffffffffffffffffffffffffffffffffffffff168152602001908152602001600020819080600181540180825580915050906001820390600052602060002001600090919290919091505550816006600083815260200190815260200160002060006101000a81548173ffffffffffffffffffffffffffffffffffffffff021916908373ffffffffffffffffffffffffffffffffffffffff1602179055505050565b6000808284811515612bf557fe5b0490508091505092915050565b604080519081016040528060008152602001600081525090565b6080604051908101604052806000815260200160008152602001600067ffffffffffffffff168152602001600060ff1681525090565b815481835581811115612c7957818360005260206000209182019101612c789190612c7e565b5b505050565b612ca091905b80821115612c9c576000816000905550600101612c84565b5090565b905600a165627a7a72305820fc6d5277fdd52d9e560f3e0d3a37968606dceb569d67dec6b3354fbef911c4490029",
  "source": "pragma solidity ^0.4.22;\n//pragma experimental ABIEncoderV2;\n\n//import \"./testingDataCalls.sol\";\n\n\n/**\n * @title SafeMath\n * @dev Math operations with safety checks that throw on error\n */\nlibrary SafeMath {\n\n    /**\n    * @dev Multiplies two numbers, throws on overflow.\n    */\n    function mul(uint256 a, uint256 b) internal pure returns (uint256) {\n        if (a == 0) {\n            return 0;\n        }\n        uint256 c = a * b;\n        assert(c / a == b);\n        return c;\n    }\n\n  /**\n  * @dev Integer division of two numbers, truncating the quotient.\n  */\n    function div(uint256 a, uint256 b) internal pure returns (uint256) {\n        // assert(b > 0); // Solidity automatically throws when dividing by 0\n        uint256 c = a / b;\n        // assert(a == b * c + a % b); // There is no case in which this doesn't hold\n        return c;\n    }\n\n  /**\n  * @dev Subtracts two numbers, throws on overflow (i.e. if subtrahend is greater than minuend).\n  */\n    function sub(uint256 a, uint256 b) internal pure returns (uint256) {\n        assert(b <= a);\n        return a - b;\n    }\n\n  /**\n  * @dev Adds two numbers, throws on overflow.\n  */\n    function add(uint256 a, uint256 b) internal pure returns (uint256) {\n        uint256 c = a + b;\n        assert(c >= a);\n        return c;\n    }\n}\n\n\n///Author Dieter Shirley (https://github.com/dete)\ncontract ERC721 {\n\n    event LogTransfer(address from, address to, uint256 tokenId);\n    event LogApproval(address owner, address approved, uint256 tokenId);\n\n    function name() public view returns (string);\n    function symbol() public view returns (string);\n    function totalSupply() public view returns (uint256 total);\n    function balanceOf(address _owner) public view returns (uint256 balance);\n    function ownerOf(uint256 _tokenId) external view returns (address owner);\n    function approve(address _to, uint256 _tokenId) external;\n    function transfer(address _to, uint256 _tokenId) external;\n    function transferFrom(address _from, address _to, uint256 _tokenId) external;\n    function tokensOfOwner(address _owner) external view returns (uint256[] tokenIds);\n\n}\n\ncontract DataLayer{\n    using SafeMath for *;\n\n    address public adminAddress = 0xDd8A98ace58C038497bA8196A0c682613F7b4161;\n\n    /**\n    * WinningTeam   TeamId of a predicted stage winner\n    * RunnerUp      TeamId of a predicted stage runner up\n    * Stage         Stage Chosen (1,2,3,4,5  --- 5 being playoffs)\n    * timeStamp     Creation timestamp\n    */\n    struct Token {\n        uint WinningTeam;\n        uint RunnerUp;\n        uint64 timeStamp;\n        uint8 Stage;\n    }\n\n    struct Stage1Winners {\n        uint WinningTeam;\n        uint RunnerUp;\n    }\n\n    \n    // List of all tokens\n    Token[] public tokens;\n    Stage1Winners[] public stage1Winners;\n    bool public stage1Ended = false;\n\n    // List of all tokens that won \n    uint256[] Stage1WinningTokens;\n\n    mapping (address => uint256[]) public tokensOfOwnerMap;\n    mapping (uint256 => address) public ownerOfTokenMap;\n    mapping (uint256 => address) public tokensApprovedMap;\n    mapping (uint256 => bool) public tokenToWinnerMap; \n    mapping (address => bool) public recievedPrizeMoneyMap;\n\n    event LogTokenBuilt(address creatorAddress, uint256 tokenId, uint8 stage, uint Winner, uint Runnerup, uint64 timeStamp);\n    event LogPoolSize(uint money, uint stage);\n\n}\n\n/**\n* @title AccessControlLayer\n* @author Callahan Cohane\n* @dev Containes basic admin modifiers to restrict access to some functions. Allows\n* for pauseing, and setting emergency stops.\n*/\ncontract AccessControlLayer is DataLayer{\n   /**\n   * @dev Main modifier to limit access to delicate functions.\n   */\n    modifier onlyAdmin() {\n        require(msg.sender == adminAddress,\"Not admin\");\n        _;\n    }\n\n    modifier hasNotRecievedPrize(){\n        require(recievedPrizeMoneyMap[msg.sender] != true, \"You already withdrew your prize money \");\n        _;\n    }\n\n    modifier checkStage1Ended(){\n        require(stage1Ended != false, \"Stage has not ended yet\");\n        _;\n    }\n\n\n    /**\n    * @dev Transfer contract's ownership\n    * @param _newAdmin Address to be set\n    */\n    function setAdmin(address _newAdmin) external {\n\n        require(_newAdmin != address(0), \"New admin cannot equals address 0.\");\n        adminAddress = _newAdmin;\n        \n    }\n}\n\n\n/**\n* @title OverwatchLeagueToken, main implemantations of the ERC721 standard\n* @author Callahan Cohane\n*/\ncontract OverwatchLeagueToken is AccessControlLayer, ERC721 {\n\n    //FUNCTIONALTIY\n    /**\n    * @notice checks if a user owns a token\n    * @param userAddress - The address to check.\n    * @param tokenId - ID of the token that needs to be verified.\n    * @return true if the userAddress provided owns the token.\n    */\n    function _userOwnsToken(address userAddress, uint256 tokenId) internal view returns (bool){\n        return ownerOfTokenMap[tokenId] == userAddress;\n    }\n\n    /**\n    * @notice checks if the address provided is approved for a given token \n    * @param userAddress - The address to check.\n    * @param tokenId - ID of the token that needs to be verified.\n    * @return true if it is aproved\n    */\n    function _tokenIsApproved(address userAddress, uint256 tokenId) internal view returns (bool) {\n        return tokensApprovedMap[tokenId] == userAddress;\n    }\n\n    /**\n    * @notice transfers the token specified from sneder address to receiver address.\n    * @param fromAddress the sender address that initially holds the token.\n    * @param toAddress the receipient of the token.\n    * @param tokenId ID of the token that will be sent.\n    */\n    function _transfer(address fromAddress, address toAddress, uint256 tokenId) internal {\n\n        require(tokensOfOwnerMap[toAddress].length < 100, \" \");\n        \n        tokensOfOwnerMap[toAddress].push(tokenId);\n        ownerOfTokenMap[tokenId] = toAddress;\n\n        uint256[] storage tokenArray = tokensOfOwnerMap[fromAddress];\n        for (uint256 i = 0; i < tokenArray.length; i++){\n            if(tokenArray[i] == tokenId){\n                tokenArray[i] = tokenArray[tokenArray.length-1];\n            }\n        }\n        delete tokenArray[tokenArray.length-1];\n        tokenArray.length--;\n\n        delete tokensApprovedMap[tokenId];\n\n    }\n\n    /**\n    * @notice Approve the address for a given token\n    * @param tokenId - ID of token to be approved\n    * @param userAddress - Address that will be approved\n    */\n    function _approve(uint256 tokenId, address userAddress) internal {\n        tokensApprovedMap[tokenId] = userAddress;\n    }\n\n    /**\n    * @notice set token owner to an address\n    * @dev sets token owner on the contract data structures\n    * @param ownerAddress address to be set\n    * @param tokenId Id of token to be used\n    */\n    function _setTokenOwner(address ownerAddress, uint256 tokenId) internal{\n\n        tokensOfOwnerMap[ownerAddress].push(tokenId);\n        ownerOfTokenMap[tokenId] = ownerAddress;\n    \n    }\n\n    //ERC721 INTERFACE\n    function name() public view returns (string){\n        return \"OverwatchLeagueToken\";\n    }\n\n    function symbol() public view returns (string){\n        return \"OWLT\";\n    }\n\n    function balanceOf(address userAddress) public view returns (uint256 count) {\n        return tokensOfOwnerMap[userAddress].length;\n\n    }\n\n    function transfer(address toAddress,uint256 tokenId) external {\n\n        require(toAddress != address(0),\" \");\n        require(toAddress != address(this),\" \");\n        require(_userOwnsToken(msg.sender, tokenId),\" \");\n\n        _transfer(msg.sender, toAddress, tokenId);\n        emit LogTransfer(msg.sender, toAddress, tokenId);\n\n    }\n\n    function transferFrom(address fromAddress, address toAddress, uint256 tokenId) external {\n\n        require(toAddress != address(0),\" \");\n        require(toAddress != address(this),\" \");\n        require(_tokenIsApproved(msg.sender, tokenId),\" \");\n        require(_userOwnsToken(fromAddress, tokenId),\" \");\n\n        _transfer(fromAddress, toAddress, tokenId);\n        emit LogTransfer(fromAddress, toAddress, tokenId);\n\n    }\n\n    function approve( address toAddress, uint256 tokenId) external {\n\n        require(toAddress != address(0),\" \");\n        require(_userOwnsToken(msg.sender, tokenId),\" \");\n\n        _approve(tokenId, toAddress);\n        emit LogApproval(msg.sender, toAddress, tokenId);\n\n    }\n\n    function totalSupply() public view returns (uint) {\n\n        return tokens.length;\n\n    }\n\n    function ownerOf(uint256 tokenId) external view returns (address ownerAddress) {\n\n        ownerAddress = ownerOfTokenMap[tokenId];\n        require(ownerAddress != address(0),\" \");\n\n    }\n\n    function tokensOfOwner(address ownerAddress) external view returns(uint256[] tokenIds) {\n\n        tokenIds = tokensOfOwnerMap[ownerAddress];\n\n    }\n\n\n}\n\n\n/**\n* @title CoreLayer\n* @author Callahan Cohane\n* @notice Main contract\n*/\ncontract CoreLayer is OverwatchLeagueToken{\n\n    using SafeMath for *;\n    uint256 public stage1Pool;  \n    uint256 public stage1Payout;\n    \n    event LogPayout(uint payout);\n    event LogWinners(uint winners, uint[] tokenList, uint prize, uint stage1Pool);\n\n    constructor() public {\n        adminAddress = msg.sender;\n    }\n\n    /** \n    * @dev Only accept eth from the admin\n    */\n    function() external payable {\n        require(msg.sender == adminAddress,\" \");\n    }\n\n    /** \n    * @notice Builds ERC721 token with the predictions provided by the user.\n    * @param Stage  - Stage that is being bet on (1,2,3,4,5).\n    * @param WinningTeam -  Team being bet on to win.\n    * @param RunnerUp -  Team being bet on to come in second.\n    * @dev An automatic timestamp is added for internal use.\n    */\n    function buildToken(uint8 Stage, uint WinningTeam, uint RunnerUp) public payable{\n        if(Stage == 1){\n            require(stage1Ended == false, \"Stage 1 has ended\");\n        }\n        Token memory token = Token({\n            Stage: Stage,\n            WinningTeam: WinningTeam,\n            RunnerUp: RunnerUp,\n            timeStamp: uint64(now)\n        });\n\n        require(msg.sender != address(0), \"Address equals address 0\");\n        require(tokensOfOwnerMap[msg.sender].length < 100, \"Reach individual token limit\");\n\n        uint256 tokenId = tokens.push(token) - 1;\n        uint256 pool = msg.value;\n        stage1Pool = stage1Pool.add(pool);\n        \n\n        _setTokenOwner(msg.sender, tokenId);\n        emit LogTokenBuilt(msg.sender, tokenId, tokens[tokenId].Stage, tokens[tokenId].WinningTeam, tokens[tokenId].RunnerUp, tokens[tokenId].timeStamp);\n        emit LogPoolSize(stage1Pool, Stage);\n    }\n\n    /** \n    * @param tokenId - ID of token to get.\n    * @return Returns all the valuable information about a specific token.\n    */\n    function getToken(uint256 tokenId) external view returns (uint8 Stage, uint WinningTeam, uint RunnerUp, uint64 timeStamp) {\n\n        Token storage token = tokens[tokenId];\n\n        Stage = token.Stage;\n        WinningTeam = token.WinningTeam;\n        RunnerUp = token.RunnerUp;\n        timeStamp = token.timeStamp;\n\n    }\n\n    function StageResults(uint Stage, uint winner, uint runner) external onlyAdmin {\n        if(Stage == 1){\n            Stage1Winners memory stage1Win = Stage1Winners(winner,runner);\n            stage1Winners.push(stage1Win);\n            checkStage1Winners();\n            getPayout(Stage);\n            stage1Ended = true;\n        }       \n    }\n\n\n    /**\n    * @notice Allows any user to retrieve their asigned prize. This would be the sum of the price of all the tokens\n    * owned by the caller of this function.\n    * @dev If the caller has no prize, the function will revert costing no gas to the caller.\n    */\n    function _withdrawPrize(uint Stage) external payable hasNotRecievedPrize checkStage1Ended{\n        uint256 prize = 0;\n        uint256[] memory tokenList = tokensOfOwnerMap[msg.sender];\n        uint winners = 0;\n        if(Stage == 1){\n            for(uint256 i = 0;i < tokenList.length; i++){\n                if(tokenToWinnerMap[tokenList[i]]){\n                    winners = winners.add(1);\n                }\n            }\n            prize = winners.mul(stage1Payout);\n            if(prize>0){\n                msg.sender.transfer(prize);\n                stage1Pool = stage1Pool.sub(prize);\n                emit LogWinners(winners,tokenList,prize, stage1Pool);\n                winners = 0;\n                recievedPrizeMoneyMap[msg.sender] = true;\n            }else {\n                emit LogWinners(winners,tokenList,prize, stage1Pool); \n                recievedPrizeMoneyMap[msg.sender] = true;\n            }\n        }\n    }\n\n\n    function checkStage1Winners() internal onlyAdmin {\n\n        for(uint i = 0; i < tokens.length; i++){\n            if(tokens[i].Stage == 1 && tokens[i].WinningTeam == stage1Winners[0].WinningTeam && tokens[i].RunnerUp == stage1Winners[0].RunnerUp){\n                Stage1WinningTokens.push(i);\n                tokenToWinnerMap[i] = true;\n            } else {\n                tokenToWinnerMap[i] = false;\n            }\n        }\n    }\n\n    function getPayout(uint Stage) internal onlyAdmin {\n        if(Stage == 1){\n            stage1Payout = stage1Pool.div(Stage1WinningTokens.length);\n            emit LogPayout(stage1Payout);\n            \n        }\n    }\n     /**\n    * @notice Let the admin cash-out the entire contract balance 10 days after game has finished.\n    */\n    function finishedGameWithdraw() external onlyAdmin{\n\n        uint256 balance = address(this).balance;\n        adminAddress.transfer(balance);\n\n    }\n\n}",
  "sourcePath": "/Users/CalCohane/Downloads/BYTE/OverwatchLeagueCryptoBets/bet/contracts/Betting.sol",
  "compiler": {
    "name": "solc",
    "version": "0.4.24+commit.e67f0147.Emscripten.clang"
  },
  "schemaVersion": "2.0.1",
  "updatedAt": "2018-12-20T16:53:34.720Z"
}