{
  "contractName": "CoreLayer",
  "abi": [
    {
      "constant": true,
      "inputs": [],
      "name": "name",
      "outputs": [
        {
          "name": "",
          "type": "string"
        }
      ],
      "payable": false,
      "stateMutability": "view",
      "type": "function"
    },
    {
      "constant": false,
      "inputs": [
        {
          "name": "toAddress",
          "type": "address"
        },
        {
          "name": "tokenId",
          "type": "uint256"
        }
      ],
      "name": "approve",
      "outputs": [],
      "payable": false,
      "stateMutability": "nonpayable",
      "type": "function"
    },
    {
      "constant": true,
      "inputs": [],
      "name": "totalSupply",
      "outputs": [
        {
          "name": "",
          "type": "uint256"
        }
      ],
      "payable": false,
      "stateMutability": "view",
      "type": "function"
    },
    {
      "constant": true,
      "inputs": [
        {
          "name": "",
          "type": "uint256"
        }
      ],
      "name": "tokenToWinnerMap",
      "outputs": [
        {
          "name": "",
          "type": "bool"
        }
      ],
      "payable": false,
      "stateMutability": "view",
      "type": "function"
    },
    {
      "constant": false,
      "inputs": [
        {
          "name": "fromAddress",
          "type": "address"
        },
        {
          "name": "toAddress",
          "type": "address"
        },
        {
          "name": "tokenId",
          "type": "uint256"
        }
      ],
      "name": "transferFrom",
      "outputs": [],
      "payable": false,
      "stateMutability": "nonpayable",
      "type": "function"
    },
    {
      "constant": true,
      "inputs": [
        {
          "name": "",
          "type": "uint256"
        }
      ],
      "name": "stage1Winners",
      "outputs": [
        {
          "name": "WinningTeam",
          "type": "uint256"
        },
        {
          "name": "RunnerUp",
          "type": "uint256"
        }
      ],
      "payable": false,
      "stateMutability": "view",
      "type": "function"
    },
    {
      "constant": true,
      "inputs": [
        {
          "name": "",
          "type": "uint256"
        }
      ],
      "name": "ownerOfTokenMap",
      "outputs": [
        {
          "name": "",
          "type": "address"
        }
      ],
      "payable": false,
      "stateMutability": "view",
      "type": "function"
    },
    {
      "constant": true,
      "inputs": [
        {
          "name": "",
          "type": "uint256"
        }
      ],
      "name": "tokens",
      "outputs": [
        {
          "name": "WinningTeam",
          "type": "uint256"
        },
        {
          "name": "RunnerUp",
          "type": "uint256"
        },
        {
          "name": "timeStamp",
          "type": "uint64"
        },
        {
          "name": "Stage",
          "type": "uint8"
        }
      ],
      "payable": false,
      "stateMutability": "view",
      "type": "function"
    },
    {
      "constant": true,
      "inputs": [
        {
          "name": "tokenId",
          "type": "uint256"
        }
      ],
      "name": "ownerOf",
      "outputs": [
        {
          "name": "ownerAddress",
          "type": "address"
        }
      ],
      "payable": false,
      "stateMutability": "view",
      "type": "function"
    },
    {
      "constant": false,
      "inputs": [
        {
          "name": "_newAdmin",
          "type": "address"
        }
      ],
      "name": "setAdmin",
      "outputs": [],
      "payable": false,
      "stateMutability": "nonpayable",
      "type": "function"
    },
    {
      "constant": true,
      "inputs": [
        {
          "name": "userAddress",
          "type": "address"
        }
      ],
      "name": "balanceOf",
      "outputs": [
        {
          "name": "count",
          "type": "uint256"
        }
      ],
      "payable": false,
      "stateMutability": "view",
      "type": "function"
    },
    {
      "constant": true,
      "inputs": [
        {
          "name": "ownerAddress",
          "type": "address"
        }
      ],
      "name": "tokensOfOwner",
      "outputs": [
        {
          "name": "tokenIds",
          "type": "uint256[]"
        }
      ],
      "payable": false,
      "stateMutability": "view",
      "type": "function"
    },
    {
      "constant": true,
      "inputs": [],
      "name": "symbol",
      "outputs": [
        {
          "name": "",
          "type": "string"
        }
      ],
      "payable": false,
      "stateMutability": "view",
      "type": "function"
    },
    {
      "constant": true,
      "inputs": [
        {
          "name": "",
          "type": "address"
        },
        {
          "name": "",
          "type": "uint256"
        }
      ],
      "name": "tokensOfOwnerMap",
      "outputs": [
        {
          "name": "",
          "type": "uint256"
        }
      ],
      "payable": false,
      "stateMutability": "view",
      "type": "function"
    },
    {
      "constant": false,
      "inputs": [
        {
          "name": "toAddress",
          "type": "address"
        },
        {
          "name": "tokenId",
          "type": "uint256"
        }
      ],
      "name": "transfer",
      "outputs": [],
      "payable": false,
      "stateMutability": "nonpayable",
      "type": "function"
    },
    {
      "constant": true,
      "inputs": [],
      "name": "deploymentTime",
      "outputs": [
        {
          "name": "",
          "type": "uint256"
        }
      ],
      "payable": false,
      "stateMutability": "view",
      "type": "function"
    },
    {
      "constant": true,
      "inputs": [
        {
          "name": "",
          "type": "uint256"
        }
      ],
      "name": "tokensApprovedMap",
      "outputs": [
        {
          "name": "",
          "type": "address"
        }
      ],
      "payable": false,
      "stateMutability": "view",
      "type": "function"
    },
    {
      "constant": true,
      "inputs": [],
      "name": "adminAddress",
      "outputs": [
        {
          "name": "",
          "type": "address"
        }
      ],
      "payable": false,
      "stateMutability": "view",
      "type": "function"
    },
    {
      "inputs": [],
      "payable": false,
      "stateMutability": "nonpayable",
      "type": "constructor"
    },
    {
      "payable": true,
      "stateMutability": "payable",
      "type": "fallback"
    },
    {
      "anonymous": false,
      "inputs": [
        {
          "indexed": false,
          "name": "from",
          "type": "address"
        },
        {
          "indexed": false,
          "name": "to",
          "type": "address"
        },
        {
          "indexed": false,
          "name": "tokenId",
          "type": "uint256"
        }
      ],
      "name": "LogTransfer",
      "type": "event"
    },
    {
      "anonymous": false,
      "inputs": [
        {
          "indexed": false,
          "name": "owner",
          "type": "address"
        },
        {
          "indexed": false,
          "name": "approved",
          "type": "address"
        },
        {
          "indexed": false,
          "name": "tokenId",
          "type": "uint256"
        }
      ],
      "name": "LogApproval",
      "type": "event"
    },
    {
      "anonymous": false,
      "inputs": [
        {
          "indexed": false,
          "name": "creatorAddress",
          "type": "address"
        },
        {
          "indexed": false,
          "name": "tokenId",
          "type": "uint256"
        },
        {
          "indexed": false,
          "name": "stage",
          "type": "uint8"
        },
        {
          "indexed": false,
          "name": "Winner",
          "type": "uint256"
        },
        {
          "indexed": false,
          "name": "Runnerup",
          "type": "uint256"
        },
        {
          "indexed": false,
          "name": "timeStamp",
          "type": "uint64"
        }
      ],
      "name": "LogTokenBuilt",
      "type": "event"
    },
    {
      "constant": false,
      "inputs": [
        {
          "name": "Stage",
          "type": "uint8"
        },
        {
          "name": "WinningTeam",
          "type": "uint256"
        },
        {
          "name": "RunnerUp",
          "type": "uint256"
        }
      ],
      "name": "buildToken",
      "outputs": [],
      "payable": true,
      "stateMutability": "payable",
      "type": "function"
    },
    {
      "constant": true,
      "inputs": [
        {
          "name": "tokenId",
          "type": "uint256"
        }
      ],
      "name": "getToken",
      "outputs": [
        {
          "name": "Stage",
          "type": "uint8"
        },
        {
          "name": "WinningTeam",
          "type": "uint256"
        },
        {
          "name": "RunnerUp",
          "type": "uint256"
        },
        {
          "name": "timeStamp",
          "type": "uint64"
        }
      ],
      "payable": false,
      "stateMutability": "view",
      "type": "function"
    },
    {
      "constant": false,
      "inputs": [
        {
          "name": "Stage",
          "type": "uint256"
        },
        {
          "name": "winner",
          "type": "uint256"
        },
        {
          "name": "runner",
          "type": "uint256"
        }
      ],
      "name": "StageResults",
      "outputs": [],
      "payable": false,
      "stateMutability": "nonpayable",
      "type": "function"
    },
    {
      "constant": false,
      "inputs": [],
      "name": "adminWithdrawBalance",
      "outputs": [],
      "payable": false,
      "stateMutability": "nonpayable",
      "type": "function"
    },
    {
      "constant": false,
      "inputs": [
        {
          "name": "Stage",
          "type": "uint256"
        }
      ],
      "name": "_withdrawPrize",
      "outputs": [],
      "payable": true,
      "stateMutability": "payable",
      "type": "function"
    },
    {
      "constant": false,
      "inputs": [],
      "name": "finishedGameWithdraw",
      "outputs": [],
      "payable": false,
      "stateMutability": "nonpayable",
      "type": "function"
    }
  ],
  "bytecode": "0x6080604052600080556000600155600060025534801561001e57600080fd5b5033600360006101000a81548173ffffffffffffffffffffffffffffffffffffffff021916908373ffffffffffffffffffffffffffffffffffffffff16021790555042600481905550612a4a806100766000396000f30060806040526004361061013e576000357c0100000000000000000000000000000000000000000000000000000000900463ffffffff16806306fdde0314610205578063095ea7b31461029557806318160ddd146102e25780631b85a6751461030d57806323b872dd14610352578063329aa224146103bf57806337440e9e146104075780633a52a699146104745780634f64b2be146104945780636352211e14610504578063704b6c021461057157806370a08231146105b45780638462151c1461060b57806395d89b41146106a3578063a3816e9014610733578063a5c3b50414610794578063a9059cbb146107d5578063b3f5002914610822578063e4b50cb814610839578063ecda10f5146108a9578063ee76c4e0146108d4578063ef8fd0041461090b578063fc6f946814610978578063fdf061f0146109cf575b600360009054906101000a900473ffffffffffffffffffffffffffffffffffffffff1673ffffffffffffffffffffffffffffffffffffffff163373ffffffffffffffffffffffffffffffffffffffff16141515610203576040517f08c379a00000000000000000000000000000000000000000000000000000000081526004018080602001828103825260018152602001807f200000000000000000000000000000000000000000000000000000000000000081525060200191505060405180910390fd5b005b34801561021157600080fd5b5061021a6109e6565b6040518080602001828103825283818151815260200191508051906020019080838360005b8381101561025a57808201518184015260208101905061023f565b50505050905090810190601f1680156102875780820380516001836020036101000a031916815260200191505b509250505060405180910390f35b3480156102a157600080fd5b506102e0600480360381019080803573ffffffffffffffffffffffffffffffffffffffff16906020019092919080359060200190929190505050610a23565b005b3480156102ee57600080fd5b506102f7610bf3565b6040518082815260200191505060405180910390f35b34801561031957600080fd5b5061033860048036038101908080359060200190929190505050610c00565b604051808215151515815260200191505060405180910390f35b34801561035e57600080fd5b506103bd600480360381019080803573ffffffffffffffffffffffffffffffffffffffff169060200190929190803573ffffffffffffffffffffffffffffffffffffffff16906020019092919080359060200190929190505050610c20565b005b3480156103cb57600080fd5b506103ea60048036038101908080359060200190929190505050610f14565b604051808381526020018281526020019250505060405180910390f35b34801561041357600080fd5b5061043260048036038101908080359060200190929190505050610f47565b604051808273ffffffffffffffffffffffffffffffffffffffff1673ffffffffffffffffffffffffffffffffffffffff16815260200191505060405180910390f35b61049260048036038101908080359060200190929190505050610f7a565b005b3480156104a057600080fd5b506104bf60048036038101908080359060200190929190505050611188565b604051808581526020018481526020018367ffffffffffffffff1667ffffffffffffffff1681526020018260ff1660ff16815260200194505050505060405180910390f35b34801561051057600080fd5b5061052f600480360381019080803590602001909291905050506111e8565b604051808273ffffffffffffffffffffffffffffffffffffffff1673ffffffffffffffffffffffffffffffffffffffff16815260200191505060405180910390f35b34801561057d57600080fd5b506105b2600480360381019080803573ffffffffffffffffffffffffffffffffffffffff1690602001909291905050506112ca565b005b3480156105c057600080fd5b506105f5600480360381019080803573ffffffffffffffffffffffffffffffffffffffff16906020019092919050505061149e565b6040518082815260200191505060405180910390f35b34801561061757600080fd5b5061064c600480360381019080803573ffffffffffffffffffffffffffffffffffffffff1690602001909291905050506114ea565b6040518080602001828103825283818151815260200191508051906020019060200280838360005b8381101561068f578082015181840152602081019050610674565b505050509050019250505060405180910390f35b3480156106af57600080fd5b506106b8611581565b6040518080602001828103825283818151815260200191508051906020019080838360005b838110156106f85780820151818401526020810190506106dd565b50505050905090810190601f1680156107255780820380516001836020036101000a031916815260200191505b509250505060405180910390f35b34801561073f57600080fd5b5061077e600480360381019080803573ffffffffffffffffffffffffffffffffffffffff169060200190929190803590602001909291905050506115be565b6040518082815260200191505060405180910390f35b3480156107a057600080fd5b506107d36004803603810190808035906020019092919080359060200190929190803590602001909291905050506115ee565b005b3480156107e157600080fd5b50610820600480360381019080803573ffffffffffffffffffffffffffffffffffffffff16906020019092919080359060200190929190505050611738565b005b34801561082e57600080fd5b506108376119ad565b005b34801561084557600080fd5b5061086460048036038101908080359060200190929190505050611afa565b604051808560ff1660ff1681526020018481526020018381526020018267ffffffffffffffff1667ffffffffffffffff16815260200194505050505060405180910390f35b3480156108b557600080fd5b506108be611b66565b6040518082815260200191505060405180910390f35b610909600480360381019080803560ff1690602001909291908035906020019092919080359060200190929190505050611b6c565b005b34801561091757600080fd5b5061093660048036038101908080359060200190929190505050611f55565b604051808273ffffffffffffffffffffffffffffffffffffffff1673ffffffffffffffffffffffffffffffffffffffff16815260200191505060405180910390f35b34801561098457600080fd5b5061098d611f88565b604051808273ffffffffffffffffffffffffffffffffffffffff1673ffffffffffffffffffffffffffffffffffffffff16815260200191505060405180910390f35b3480156109db57600080fd5b506109e4611fae565b005b60606040805190810160405280601481526020017f4f76657277617463684c6561677565546f6b656e000000000000000000000000815250905090565b600073ffffffffffffffffffffffffffffffffffffffff168273ffffffffffffffffffffffffffffffffffffffff1614151515610ac8576040517f08c379a00000000000000000000000000000000000000000000000000000000081526004018080602001828103825260018152602001807f200000000000000000000000000000000000000000000000000000000000000081525060200191505060405180910390fd5b610ad233826120e7565b1515610b46576040517f08c379a00000000000000000000000000000000000000000000000000000000081526004018080602001828103825260018152602001807f200000000000000000000000000000000000000000000000000000000000000081525060200191505060405180910390fd5b610b508183612153565b7fc5c187f53b6bf5e61e032320e996f271e6dc6b212ee64ec28ba8e6b9e3f97a4e338383604051808473ffffffffffffffffffffffffffffffffffffffff1673ffffffffffffffffffffffffffffffffffffffff1681526020018373ffffffffffffffffffffffffffffffffffffffff1673ffffffffffffffffffffffffffffffffffffffff168152602001828152602001935050505060405180910390a15050565b6000600580549050905090565b600b6020528060005260406000206000915054906101000a900460ff1681565b600073ffffffffffffffffffffffffffffffffffffffff168273ffffffffffffffffffffffffffffffffffffffff1614151515610cc5576040517f08c379a00000000000000000000000000000000000000000000000000000000081526004018080602001828103825260018152602001807f200000000000000000000000000000000000000000000000000000000000000081525060200191505060405180910390fd5b3073ffffffffffffffffffffffffffffffffffffffff168273ffffffffffffffffffffffffffffffffffffffff1614151515610d69576040517f08c379a00000000000000000000000000000000000000000000000000000000081526004018080602001828103825260018152602001807f200000000000000000000000000000000000000000000000000000000000000081525060200191505060405180910390fd5b610d7333826121a9565b1515610de7576040517f08c379a00000000000000000000000000000000000000000000000000000000081526004018080602001828103825260018152602001807f200000000000000000000000000000000000000000000000000000000000000081525060200191505060405180910390fd5b610df183826120e7565b1515610e65576040517f08c379a00000000000000000000000000000000000000000000000000000000081526004018080602001828103825260018152602001807f200000000000000000000000000000000000000000000000000000000000000081525060200191505060405180910390fd5b610e70838383612215565b7f0a85107a334eae0d22d21cdf13af0f8e8125039ec60baaa843d2c4c5b0680174838383604051808473ffffffffffffffffffffffffffffffffffffffff1673ffffffffffffffffffffffffffffffffffffffff1681526020018373ffffffffffffffffffffffffffffffffffffffff1673ffffffffffffffffffffffffffffffffffffffff168152602001828152602001935050505060405180910390a1505050565b600681815481101515610f2357fe5b90600052602060002090600202016000915090508060000154908060010154905082565b60096020528060005260406000206000915054906101000a900473ffffffffffffffffffffffffffffffffffffffff1681565b6000606060008060009350600860003373ffffffffffffffffffffffffffffffffffffffff1673ffffffffffffffffffffffffffffffffffffffff16815260200190815260200160002080548060200260200160405190810160405280929190818152602001828054801561100e57602002820191906000526020600020905b815481526020019060010190808311610ffa575b5050505050925060009150600185141561118157600090505b825181101561109057600b6000848381518110151561104257fe5b90602001906020020151815260200190815260200160002060009054906101000a900460ff1615611083576110816001836124be90919063ffffffff16565b505b8080600101915050611027565b6110a5600254836124dc90919063ffffffff16565b935060008411151561111f576040517f08c379a00000000000000000000000000000000000000000000000000000000081526004018080602001828103825260018152602001807f200000000000000000000000000000000000000000000000000000000000000081525060200191505060405180910390fd5b3373ffffffffffffffffffffffffffffffffffffffff166108fc859081150290604051600060405180830381858888f19350505050158015611165573d6000803e3d6000fd5b5061117b8460015461251790919063ffffffff16565b50600091505b5050505050565b60058181548110151561119757fe5b90600052602060002090600302016000915090508060000154908060010154908060020160009054906101000a900467ffffffffffffffff16908060020160089054906101000a900460ff16905084565b60006009600083815260200190815260200160002060009054906101000a900473ffffffffffffffffffffffffffffffffffffffff169050600073ffffffffffffffffffffffffffffffffffffffff168173ffffffffffffffffffffffffffffffffffffffff16141515156112c5576040517f08c379a00000000000000000000000000000000000000000000000000000000081526004018080602001828103825260018152602001807f200000000000000000000000000000000000000000000000000000000000000081525060200191505060405180910390fd5b919050565b600360009054906101000a900473ffffffffffffffffffffffffffffffffffffffff1673ffffffffffffffffffffffffffffffffffffffff163373ffffffffffffffffffffffffffffffffffffffff1614151561138f576040517f08c379a00000000000000000000000000000000000000000000000000000000081526004018080602001828103825260098152602001807f4e6f742061646d696e000000000000000000000000000000000000000000000081525060200191505060405180910390fd5b600073ffffffffffffffffffffffffffffffffffffffff168173ffffffffffffffffffffffffffffffffffffffff161415151561145a576040517f08c379a00000000000000000000000000000000000000000000000000000000081526004018080602001828103825260228152602001807f4e65772061646d696e2063616e6e6f7420657175616c7320616464726573732081526020017f302e00000000000000000000000000000000000000000000000000000000000081525060400191505060405180910390fd5b80600360006101000a81548173ffffffffffffffffffffffffffffffffffffffff021916908373ffffffffffffffffffffffffffffffffffffffff16021790555050565b6000600860008373ffffffffffffffffffffffffffffffffffffffff1673ffffffffffffffffffffffffffffffffffffffff168152602001908152602001600020805490509050919050565b6060600860008373ffffffffffffffffffffffffffffffffffffffff1673ffffffffffffffffffffffffffffffffffffffff16815260200190815260200160002080548060200260200160405190810160405280929190818152602001828054801561157557602002820191906000526020600020905b815481526020019060010190808311611561575b50505050509050919050565b60606040805190810160405280600481526020017f4f574c5400000000000000000000000000000000000000000000000000000000815250905090565b6008602052816000526040600020818154811015156115d957fe5b90600052602060002001600091509150505481565b6115f661297d565b600360009054906101000a900473ffffffffffffffffffffffffffffffffffffffff1673ffffffffffffffffffffffffffffffffffffffff163373ffffffffffffffffffffffffffffffffffffffff161415156116bb576040517f08c379a00000000000000000000000000000000000000000000000000000000081526004018080602001828103825260098152602001807f4e6f742061646d696e000000000000000000000000000000000000000000000081525060200191505060405180910390fd5b6001841415611732576040805190810160405280848152602001838152509050600681908060018154018082558091505090600182039060005260206000209060020201600090919290919091506000820151816000015560208201518160010155505050611728612530565b61173184612774565b5b50505050565b600073ffffffffffffffffffffffffffffffffffffffff168273ffffffffffffffffffffffffffffffffffffffff16141515156117dd576040517f08c379a00000000000000000000000000000000000000000000000000000000081526004018080602001828103825260018152602001807f200000000000000000000000000000000000000000000000000000000000000081525060200191505060405180910390fd5b3073ffffffffffffffffffffffffffffffffffffffff168273ffffffffffffffffffffffffffffffffffffffff1614151515611881576040517f08c379a00000000000000000000000000000000000000000000000000000000081526004018080602001828103825260018152602001807f200000000000000000000000000000000000000000000000000000000000000081525060200191505060405180910390fd5b61188b33826120e7565b15156118ff576040517f08c379a00000000000000000000000000000000000000000000000000000000081526004018080602001828103825260018152602001807f200000000000000000000000000000000000000000000000000000000000000081525060200191505060405180910390fd5b61190a338383612215565b7f0a85107a334eae0d22d21cdf13af0f8e8125039ec60baaa843d2c4c5b0680174338383604051808473ffffffffffffffffffffffffffffffffffffffff1673ffffffffffffffffffffffffffffffffffffffff1681526020018373ffffffffffffffffffffffffffffffffffffffff1673ffffffffffffffffffffffffffffffffffffffff168152602001828152602001935050505060405180910390a15050565b6000600360009054906101000a900473ffffffffffffffffffffffffffffffffffffffff1673ffffffffffffffffffffffffffffffffffffffff163373ffffffffffffffffffffffffffffffffffffffff16141515611a74576040517f08c379a00000000000000000000000000000000000000000000000000000000081526004018080602001828103825260098152602001807f4e6f742061646d696e000000000000000000000000000000000000000000000081525060200191505060405180910390fd5b3073ffffffffffffffffffffffffffffffffffffffff16319050600360009054906101000a900473ffffffffffffffffffffffffffffffffffffffff1673ffffffffffffffffffffffffffffffffffffffff166108fc829081150290604051600060405180830381858888f19350505050158015611af6573d6000803e3d6000fd5b5050565b6000806000806000600586815481101515611b1157fe5b906000526020600020906003020190508060020160089054906101000a900460ff16945080600001549350806001015492508060020160009054906101000a900467ffffffffffffffff169150509193509193565b60045481565b611b74612997565b6000806000806080604051908101604052808881526020018781526020014267ffffffffffffffff1681526020018960ff168152509450600073ffffffffffffffffffffffffffffffffffffffff163373ffffffffffffffffffffffffffffffffffffffff1614151515611c50576040517f08c379a00000000000000000000000000000000000000000000000000000000081526004018080602001828103825260188152602001807f4164647265737320657175616c7320616464726573732030000000000000000081525060200191505060405180910390fd5b6064600860003373ffffffffffffffffffffffffffffffffffffffff1673ffffffffffffffffffffffffffffffffffffffff16815260200190815260200160002080549050101515611d0a576040517f08c379a000000000000000000000000000000000000000000000000000000000815260040180806020018281038252601c8152602001807f526561636820696e646976696475616c20746f6b656e206c696d69740000000081525060200191505060405180910390fd5b600160058690806001815401808255809150509060018203906000526020600020906003020160009091929091909150600082015181600001556020820151816001015560408201518160020160006101000a81548167ffffffffffffffff021916908367ffffffffffffffff16021790555060608201518160020160086101000a81548160ff021916908360ff1602179055505050039350349250611dcd600a611dbf6009866124dc90919063ffffffff16565b61286690919063ffffffff16565b9150611de3600a8461286690919063ffffffff16565b9050611df28860ff1683612881565b611dfb816128a5565b611e0533856128be565b7fe63d8a38f742976a5f0e55994efd3ac6594659c35b4cf7b3695d0ec119c5bbc23385600587815481101515611e3757fe5b906000526020600020906003020160020160089054906101000a900460ff16600588815481101515611e6557fe5b906000526020600020906003020160000154600589815481101515611e8657fe5b90600052602060002090600302016001015460058a815481101515611ea757fe5b906000526020600020906003020160020160009054906101000a900467ffffffffffffffff16604051808773ffffffffffffffffffffffffffffffffffffffff1673ffffffffffffffffffffffffffffffffffffffff1681526020018681526020018560ff1660ff1681526020018481526020018381526020018267ffffffffffffffff1667ffffffffffffffff168152602001965050505050505060405180910390a15050505050505050565b600a6020528060005260406000206000915054906101000a900473ffffffffffffffffffffffffffffffffffffffff1681565b600360009054906101000a900473ffffffffffffffffffffffffffffffffffffffff1681565b600360009054906101000a900473ffffffffffffffffffffffffffffffffffffffff1673ffffffffffffffffffffffffffffffffffffffff163373ffffffffffffffffffffffffffffffffffffffff16141515612073576040517f08c379a00000000000000000000000000000000000000000000000000000000081526004018080602001828103825260098152602001807f4e6f742061646d696e000000000000000000000000000000000000000000000081525060200191505060405180910390fd5b600360009054906101000a900473ffffffffffffffffffffffffffffffffffffffff1673ffffffffffffffffffffffffffffffffffffffff166108fc6000549081150290604051600060405180830381858888f193505050501580156120dd573d6000803e3d6000fd5b5060008081905550565b60008273ffffffffffffffffffffffffffffffffffffffff166009600084815260200190815260200160002060009054906101000a900473ffffffffffffffffffffffffffffffffffffffff1673ffffffffffffffffffffffffffffffffffffffff1614905092915050565b80600a600084815260200190815260200160002060006101000a81548173ffffffffffffffffffffffffffffffffffffffff021916908373ffffffffffffffffffffffffffffffffffffffff1602179055505050565b60008273ffffffffffffffffffffffffffffffffffffffff16600a600084815260200190815260200160002060009054906101000a900473ffffffffffffffffffffffffffffffffffffffff1673ffffffffffffffffffffffffffffffffffffffff1614905092915050565b6000806064600860008673ffffffffffffffffffffffffffffffffffffffff1673ffffffffffffffffffffffffffffffffffffffff168152602001908152602001600020805490501015156122d2576040517f08c379a00000000000000000000000000000000000000000000000000000000081526004018080602001828103825260018152602001807f200000000000000000000000000000000000000000000000000000000000000081525060200191505060405180910390fd5b600860008573ffffffffffffffffffffffffffffffffffffffff1673ffffffffffffffffffffffffffffffffffffffff168152602001908152602001600020839080600181540180825580915050906001820390600052602060002001600090919290919091505550836009600085815260200190815260200160002060006101000a81548173ffffffffffffffffffffffffffffffffffffffff021916908373ffffffffffffffffffffffffffffffffffffffff160217905550600860008673ffffffffffffffffffffffffffffffffffffffff1673ffffffffffffffffffffffffffffffffffffffff1681526020019081526020016000209150600090505b8180549050811015612449578282828154811015156123ee57fe5b9060005260206000200154141561243c5781600183805490500381548110151561241457fe5b9060005260206000200154828281548110151561242d57fe5b90600052602060002001819055505b80806001019150506123d3565b81600183805490500381548110151561245e57fe5b90600052602060002001600090558180548091906001900361248091906129cd565b50600a600084815260200190815260200160002060006101000a81549073ffffffffffffffffffffffffffffffffffffffff02191690555050505050565b60008082840190508381101515156124d257fe5b8091505092915050565b60008060008414156124f15760009150612510565b828402905082848281151561250257fe5b0414151561250c57fe5b8091505b5092915050565b600082821115151561252557fe5b818303905092915050565b6000600360009054906101000a900473ffffffffffffffffffffffffffffffffffffffff1673ffffffffffffffffffffffffffffffffffffffff163373ffffffffffffffffffffffffffffffffffffffff161415156125f7576040517f08c379a00000000000000000000000000000000000000000000000000000000081526004018080602001828103825260098152602001807f4e6f742061646d696e000000000000000000000000000000000000000000000081525060200191505060405180910390fd5b600090505b60058054905081101561277157600160058281548110151561261a57fe5b906000526020600020906003020160020160089054906101000a900460ff1660ff1614801561268957506006600081548110151561265457fe5b90600052602060002090600202016000015460058281548110151561267557fe5b906000526020600020906003020160000154145b80156126d55750600660008154811015156126a057fe5b9060005260206000209060020201600101546005828154811015156126c157fe5b906000526020600020906003020160010154145b156127375760078190806001815401808255809150509060018203906000526020600020016000909192909190915055506001600b600083815260200190815260200160002060006101000a81548160ff021916908315150217905550612764565b6000600b600083815260200190815260200160002060006101000a81548160ff0219169083151502179055505b80806001019150506125fc565b50565b600360009054906101000a900473ffffffffffffffffffffffffffffffffffffffff1673ffffffffffffffffffffffffffffffffffffffff163373ffffffffffffffffffffffffffffffffffffffff16141515612839576040517f08c379a00000000000000000000000000000000000000000000000000000000081526004018080602001828103825260098152602001807f4e6f742061646d696e000000000000000000000000000000000000000000000081525060200191505060405180910390fd5b60018114156128635761285c60078054905060015461286690919063ffffffff16565b6002819055505b50565b600080828481151561287457fe5b0490508091505092915050565b60018214156128a15761289f816001546124be90919063ffffffff16565b505b5050565b6128ba816000546124be90919063ffffffff16565b5050565b600860008373ffffffffffffffffffffffffffffffffffffffff1673ffffffffffffffffffffffffffffffffffffffff168152602001908152602001600020819080600181540180825580915050906001820390600052602060002001600090919290919091505550816009600083815260200190815260200160002060006101000a81548173ffffffffffffffffffffffffffffffffffffffff021916908373ffffffffffffffffffffffffffffffffffffffff1602179055505050565b604080519081016040528060008152602001600081525090565b6080604051908101604052806000815260200160008152602001600067ffffffffffffffff168152602001600060ff1681525090565b8154818355818111156129f4578183600052602060002091820191016129f391906129f9565b5b505050565b612a1b91905b80821115612a175760008160009055506001016129ff565b5090565b905600a165627a7a72305820031b279f5067fbd61661220fdd3409fb3f39b4fe2477b7395940791ce9c8ca9b0029",
  "source": "pragma solidity ^0.4.22;\n//pragma experimental ABIEncoderV2;\n\n//import \"./testingDataCalls.sol\";\n\n\n/**\n * @title SafeMath\n * @dev Math operations with safety checks that throw on error\n */\nlibrary SafeMath {\n\n    /**\n    * @dev Multiplies two numbers, throws on overflow.\n    */\n    function mul(uint256 a, uint256 b) internal pure returns (uint256) {\n        if (a == 0) {\n            return 0;\n        }\n        uint256 c = a * b;\n        assert(c / a == b);\n        return c;\n    }\n\n  /**\n  * @dev Integer division of two numbers, truncating the quotient.\n  */\n    function div(uint256 a, uint256 b) internal pure returns (uint256) {\n        // assert(b > 0); // Solidity automatically throws when dividing by 0\n        uint256 c = a / b;\n        // assert(a == b * c + a % b); // There is no case in which this doesn't hold\n        return c;\n    }\n\n  /**\n  * @dev Subtracts two numbers, throws on overflow (i.e. if subtrahend is greater than minuend).\n  */\n    function sub(uint256 a, uint256 b) internal pure returns (uint256) {\n        assert(b <= a);\n        return a - b;\n    }\n\n  /**\n  * @dev Adds two numbers, throws on overflow.\n  */\n    function add(uint256 a, uint256 b) internal pure returns (uint256) {\n        uint256 c = a + b;\n        assert(c >= a);\n        return c;\n    }\n}\n\n\n///Author Dieter Shirley (https://github.com/dete)\ncontract ERC721 {\n\n    event LogTransfer(address from, address to, uint256 tokenId);\n    event LogApproval(address owner, address approved, uint256 tokenId);\n\n    function name() public view returns (string);\n    function symbol() public view returns (string);\n    function totalSupply() public view returns (uint256 total);\n    function balanceOf(address _owner) public view returns (uint256 balance);\n    function ownerOf(uint256 _tokenId) external view returns (address owner);\n    function approve(address _to, uint256 _tokenId) external;\n    function transfer(address _to, uint256 _tokenId) external;\n    function transferFrom(address _from, address _to, uint256 _tokenId) external;\n    function tokensOfOwner(address _owner) external view returns (uint256[] tokenIds);\n\n}\n\n\n/**\n* @title DataLayer.\n* @author Callahan Cohane\n*/\ncontract DataLayer{\n    \n    /// Pool amounts\n    uint256 adminPool =0;\n    uint256 stage1Pool =0;\n\n    /// payout amount per winner token, calculated by (stage prize pool * .9 )/amount ofwinning tokens  \n    uint256 stage1Payout = 0;\n\n    address public adminAddress;\n    uint256 public deploymentTime;\n\n    /**\n    * WinningTeam   TeamId of a predicted stage winner\n    * RunnerUp      TeamId of a predicted stage runner up\n    * Stage         Stage Chosen (1,2,3,4,5  --- 5 being playoffs)\n    * timeStamp     Creation timestamp\n    */\n    struct Token {\n        uint WinningTeam;\n        uint RunnerUp;\n        uint64 timeStamp;\n        uint8 Stage;\n    }\n\n    struct Stage1Winners {\n        uint WinningTeam;\n        uint RunnerUp;\n    }\n    \n    // List of all tokens\n    Token[] public tokens;\n\n    Stage1Winners[] public stage1Winners;\n\n    // List of all tokens that won \n    uint256[] Stage1WinningTokens;\n\n    mapping (address => uint256[]) public tokensOfOwnerMap;\n    mapping (uint256 => address) public ownerOfTokenMap;\n    mapping (uint256 => address) public tokensApprovedMap;\n    mapping (uint256 => bool) public tokenToWinnerMap; \n    \n\n    event LogTokenBuilt(address creatorAddress, uint256 tokenId, uint8 stage, uint Winner, uint Runnerup, uint64 timeStamp);\n\n}\n\n\n/**\n* @title AccessControlLayer\n* @author Callahan Cohane\n* @dev Containes basic admin modifiers to restrict access to some functions. Allows\n* for pauseing, and setting emergency stops.\n*/\ncontract AccessControlLayer is DataLayer{\n\n   /**\n   * @dev Main modifier to limit access to delicate functions.\n   */\n    modifier onlyAdmin() {\n        require(msg.sender == adminAddress,\"Not admin\");\n        _;\n    }\n\n\n    /**\n    * @dev Transfer contract's ownership\n    * @param _newAdmin Address to be set\n    */\n    function setAdmin(address _newAdmin) external onlyAdmin {\n\n        require(_newAdmin != address(0), \"New admin cannot equals address 0.\");\n        adminAddress = _newAdmin;\n    }\n}\n\n\n/**\n* @title OverwatchLeagueToken, main implemantations of the ERC721 standard\n* @author Callahan Cohane\n*/\ncontract OverwatchLeagueToken is AccessControlLayer, ERC721 {\n\n    //FUNCTIONALTIY\n    /**\n    * @notice checks if a user owns a token\n    * @param userAddress - The address to check.\n    * @param tokenId - ID of the token that needs to be verified.\n    * @return true if the userAddress provided owns the token.\n    */\n    function _userOwnsToken(address userAddress, uint256 tokenId) internal view returns (bool){\n        return ownerOfTokenMap[tokenId] == userAddress;\n    }\n\n    /**\n    * @notice checks if the address provided is approved for a given token \n    * @param userAddress - The address to check.\n    * @param tokenId - ID of the token that needs to be verified.\n    * @return true if it is aproved\n    */\n    function _tokenIsApproved(address userAddress, uint256 tokenId) internal view returns (bool) {\n        return tokensApprovedMap[tokenId] == userAddress;\n    }\n\n    /**\n    * @notice transfers the token specified from sneder address to receiver address.\n    * @param fromAddress the sender address that initially holds the token.\n    * @param toAddress the receipient of the token.\n    * @param tokenId ID of the token that will be sent.\n    */\n    function _transfer(address fromAddress, address toAddress, uint256 tokenId) internal {\n\n        require(tokensOfOwnerMap[toAddress].length < 100, \" \");\n        \n        tokensOfOwnerMap[toAddress].push(tokenId);\n        ownerOfTokenMap[tokenId] = toAddress;\n\n        uint256[] storage tokenArray = tokensOfOwnerMap[fromAddress];\n        for (uint256 i = 0; i < tokenArray.length; i++){\n            if(tokenArray[i] == tokenId){\n                tokenArray[i] = tokenArray[tokenArray.length-1];\n            }\n        }\n        delete tokenArray[tokenArray.length-1];\n        tokenArray.length--;\n\n        delete tokensApprovedMap[tokenId];\n\n    }\n\n    /**\n    * @notice Approve the address for a given token\n    * @param tokenId - ID of token to be approved\n    * @param userAddress - Address that will be approved\n    */\n    function _approve(uint256 tokenId, address userAddress) internal {\n        tokensApprovedMap[tokenId] = userAddress;\n    }\n\n    /**\n    * @notice set token owner to an address\n    * @dev sets token owner on the contract data structures\n    * @param ownerAddress address to be set\n    * @param tokenId Id of token to be used\n    */\n    function _setTokenOwner(address ownerAddress, uint256 tokenId) internal{\n\n        tokensOfOwnerMap[ownerAddress].push(tokenId);\n        ownerOfTokenMap[tokenId] = ownerAddress;\n    \n    }\n\n    //ERC721 INTERFACE\n    function name() public view returns (string){\n        return \"OverwatchLeagueToken\";\n    }\n\n    function symbol() public view returns (string){\n        return \"OWLT\";\n    }\n\n    function balanceOf(address userAddress) public view returns (uint256 count) {\n        return tokensOfOwnerMap[userAddress].length;\n\n    }\n\n    function transfer(address toAddress,uint256 tokenId) external {\n\n        require(toAddress != address(0),\" \");\n        require(toAddress != address(this),\" \");\n        require(_userOwnsToken(msg.sender, tokenId),\" \");\n\n        _transfer(msg.sender, toAddress, tokenId);\n        emit LogTransfer(msg.sender, toAddress, tokenId);\n\n    }\n\n    function transferFrom(address fromAddress, address toAddress, uint256 tokenId) external {\n\n        require(toAddress != address(0),\" \");\n        require(toAddress != address(this),\" \");\n        require(_tokenIsApproved(msg.sender, tokenId),\" \");\n        require(_userOwnsToken(fromAddress, tokenId),\" \");\n\n        _transfer(fromAddress, toAddress, tokenId);\n        emit LogTransfer(fromAddress, toAddress, tokenId);\n\n    }\n\n    function approve( address toAddress, uint256 tokenId) external {\n\n        require(toAddress != address(0),\" \");\n        require(_userOwnsToken(msg.sender, tokenId),\" \");\n\n        _approve(tokenId, toAddress);\n        emit LogApproval(msg.sender, toAddress, tokenId);\n\n    }\n\n    function totalSupply() public view returns (uint) {\n\n        return tokens.length;\n\n    }\n\n    function ownerOf(uint256 tokenId) external view returns (address ownerAddress) {\n\n        ownerAddress = ownerOfTokenMap[tokenId];\n        require(ownerAddress != address(0),\" \");\n\n    }\n\n    function tokensOfOwner(address ownerAddress) external view returns(uint256[] tokenIds) {\n\n        tokenIds = tokensOfOwnerMap[ownerAddress];\n\n    }\n\n\n}\n\n\n/**\n* @title GameLogicLayer, contract in charge of everything related to calculating points, asigning\n* winners, and distributing prizes.\n* @author Callahan Cohane\n*/\ncontract GameLogicLayer is OverwatchLeagueToken{\n    //stage1WinnerDataSource, stage1Team1DataSource, stage1Team2DataSource, stage2WinnerDataSource, stage2Team1DataSource, stage2Team2DataSource,stage3WinnerDataSource, stage3Team1DataSource, stage3Team2DataSource,stage4WinnerDataSource, stage4Team1DataSource, stage4Team2DataSource,playoffWinnerDataSource,playoffTeam1DataSource,playoffTeam2DataSource{\n\n    using SafeMath for *;\n\n    function addPoolSize(uint Stage, uint amount) internal view {\n        if(Stage == 1){\n            stage1Pool.add(amount);\n        }\n    }\n\n    function addAdminPool(uint amount) internal view{\n        adminPool.add(amount);\n    }\n\n    function checkStage1Winners() internal onlyAdmin {\n\n        for(uint i = 0; i < tokens.length; i++){\n            if(tokens[i].Stage == 1 && tokens[i].WinningTeam == stage1Winners[0].WinningTeam && tokens[i].RunnerUp == stage1Winners[0].RunnerUp){\n                Stage1WinningTokens.push(i);\n                tokenToWinnerMap[i] = true;\n            } else {\n                tokenToWinnerMap[i] = false;\n            }\n        }\n    }\n\n    function getPayout(uint Stage) internal onlyAdmin {\n        if(Stage == 1){\n\n            stage1Payout = stage1Pool.div(Stage1WinningTokens.length);\n        }\n    }\n}\n\n\n/**\n* @title CoreLayer\n* @author Callahan Cohane\n* @notice Main contract\n*/\ncontract CoreLayer is GameLogicLayer{\n\n    constructor() public {\n        adminAddress = msg.sender;\n        deploymentTime = now;\n    }\n\n    /** \n    * @dev Only accept eth from the admin\n    */\n    function() external payable {\n        require(msg.sender == adminAddress,\" \");\n    }\n\n    /** \n    * @notice Builds ERC721 token with the predictions provided by the user.\n    * @param Stage  - Stage that is being bet on (1,2,3,4,5).\n    * @param WinningTeam -  Team being bet on to win.\n    * @param RunnerUp -  Team being bet on to come in second.\n    * @dev An automatic timestamp is added for internal use.\n    */\n    function buildToken(uint8 Stage, uint WinningTeam, uint RunnerUp) public payable {\n        \n        Token memory token = Token({\n            Stage: Stage,\n            WinningTeam: WinningTeam,\n            RunnerUp: RunnerUp,\n            timeStamp: uint64(now)\n        });\n\n        require(msg.sender != address(0), \"Address equals address 0\");\n        require(tokensOfOwnerMap[msg.sender].length < 100, \"Reach individual token limit\");\n\n        uint256 tokenId = tokens.push(token) - 1;\n        uint256 pool = msg.value;\n        uint256 _prizePool = (pool.mul(9)).div(10);\n        uint256 _adminPool = pool.div(10);\n\n        addPoolSize(Stage, _prizePool);\n        addAdminPool(_adminPool);\n        _setTokenOwner(msg.sender, tokenId);\n        emit LogTokenBuilt(msg.sender, tokenId, tokens[tokenId].Stage, tokens[tokenId].WinningTeam, tokens[tokenId].RunnerUp, tokens[tokenId].timeStamp);\n\n    }\n\n    /** \n    * @param tokenId - ID of token to get.\n    * @return Returns all the valuable information about a specific token.\n    */\n    function getToken(uint256 tokenId) external view returns (uint8 Stage, uint WinningTeam, uint RunnerUp, uint64 timeStamp) {\n\n        Token storage token = tokens[tokenId];\n\n        Stage = token.Stage;\n        WinningTeam = token.WinningTeam;\n        RunnerUp = token.RunnerUp;\n        timeStamp = token.timeStamp;\n\n    }\n\n    function StageResults(uint Stage, uint winner, uint runner) external onlyAdmin {\n        if(Stage == 1){\n            Stage1Winners memory stage1Win = Stage1Winners(winner,runner);\n            stage1Winners.push(stage1Win);\n            checkStage1Winners();\n            getPayout(Stage);\n        } \n                \n    }\n\n    /**\n    * @notice Called by the development team once the World Cup has ended (adminPool is set) \n    * @dev Allows dev team to retrieve adminPool\n    */\n    function adminWithdrawBalance() external onlyAdmin {\n\n        adminAddress.transfer(adminPool);\n        adminPool = 0;\n\n    }\n\n    /**\n    * @notice Allows any user to retrieve their asigned prize. This would be the sum of the price of all the tokens\n    * owned by the caller of this function.\n    * @dev If the caller has no prize, the function will revert costing no gas to the caller.\n    */\n    function _withdrawPrize(uint Stage) external payable{\n        uint256 prize = 0;\n        uint256[] memory tokenList = tokensOfOwnerMap[msg.sender];\n        uint winners = 0;\n        if(Stage == 1){\n            for(uint256 i = 0;i < tokenList.length; i++){\n                if(tokenToWinnerMap[tokenList[i]]){\n                    winners.add(1);\n                }\n            }\n            prize = winners.mul(stage1Payout);\n            require(prize > 0,\" \");\n            msg.sender.transfer(prize);\n            stage1Pool.sub(prize);\n            winners = 0;\n\n        }\n    }\n\n     /**\n    * @notice Let the admin cash-out the entire contract balance 10 days after game has finished.\n    */\n    function finishedGameWithdraw() external onlyAdmin{\n\n        uint256 balance = address(this).balance;\n        adminAddress.transfer(balance);\n\n    }\n    \n\n}\n",
  "sourcePath": "/Users/CalCohane/Downloads/BYTE/testOwlContract/contracts/CoreLayer.sol",
  "compiler": {
    "name": "solc",
    "version": "0.4.24+commit.e67f0147.Emscripten.clang"
  },
  "schemaVersion": "2.0.1",
  "updatedAt": "2018-11-16T17:07:08.125Z"
}